:020000040800F2
:10000000E00C00209D010008D9230008FB22000815
:10001000D5230008E9090008B929000800000000FC
:10002000000000000000000000000000DF230008C6
:10003000ED09000800000000DD230008E1230008AE
:10004000B7010008B7010008B7010008B7010008B0
:10005000B7010008B7010008EF090008B701000860
:10006000B7010008B7010008B7010008B701000890
:10007000B7010008B7010008B7010008B701000880
:10008000B7010008B7010008B7010008B701000870
:10009000B7010008B7010008B7010008B701000860
:1000A000B7010008B7010008B7010008B701000850
:1000B000B7010008B7010008B7010008B701000840
:1000C000B7010008B7010008B7010008B701000830
:1000D000B7010008A9290008B7010008B701000806
:1000E000B7010008B7010008B7010008B701000810
:1000F000B7010008B7010008B7010008B701000800
:10010000B7010008B7010008B7010008B7010008EF
:10011000B7010008B7010008B7010008B7010008DF
:10012000B7010008B7010008B7010008B7010008CF
:10013000B7010008B7010008B7010008B7010008BF
:10014000B7010008B7010008B7010008B7010008AF
:10015000B7010008B7010008B7010008B70100089F
:10016000B7010008B7010008B7010008B70100088F
:10017000B7010008B7010008B7010008000000003F
:10018000B7010008B7010008DFF80CD000F0E8F86C
:1001900000480047F92B0008E00C00200648804783
:1001A00006480047FEE7FEE7FEE7FEE7FEE7FEE75C
:1001B000FEE7FEE7FEE7FEE7A1240008890100084C
:1001C0002DE9F05F0546002092469B46884606468C
:1001D000814640241BE0284641464746224600F01F
:1001E00076F853465A46C01A914110D31146184624
:1001F000224600F05DF82D1A67EB01084F462246B3
:100200000120002100F054F817EB00094E41201E98
:10021000A4F10104DFDC484631462A464346BDE8E6
:10022000F09FD2B201E000F8012B491EFBD27047CB
:100230000022F6E710B513460A4604461946FFF7B2
:10024000F0FF204610BD30B505462A460B4612F891
:10025000010B13F8014B08B1A042F8D01CB10028E3
:1002600002D06D1CF1E7284630BD70B5064602F09D
:10027000F7FB046805460A220021304600F037F8F3
:100280002C6070BD30B50B460146002020220124B1
:1002900009E021FA02F59D4205D303FA02F5491B54
:1002A00004FA02F52844151EA2F10102F1DC30BD6A
:1002B000202A04DB203A00FA02F100207047914026
:1002C000C2F1200320FA03F3194390407047202A1B
:1002D00004DB203A21FA02F00021704721FA02F3F0
:1002E000D040C2F1200291400843194670472DE9E1
:1002F000F04791460F4680460446002614F8015BFD
:100300002DB100F03FF80068405DC007F6D12B2DFD
:1003100002D02D2D18D0641E4A463946204600F0E2
:1003200035F827B13968A14201D1C7F800807105BD
:100330004FF002040BD54042002803DD02F090FB91
:100340000460A007BDE8F08746F48066E4E7002873
:10035000F8DA02F085FB04606FF00040F2E700007D
:10036000064C074D06E0E06840F0010394E8070002
:1003700098471034AC42F6D3FFF70AFFB42C0008BC
:10038000D42C000800487047B02C00082DE9F05F1D
:1003900082460078002715468B460AF10104B946CB
:1003A000302801D09DB113E014F8010B0127782803
:1003B00003D0582801D045B10AE00DB1102D07D166
:1003C0000027102514F8010B02E0082500E00A259B
:1003D0000026B0460EE005FB080005FB06F10127EC
:1003E00001EB10461FFA80F8B6F5803F00D3B946FE
:1003F00014F8010B294600F018F80028EBDABBF1DD
:10040000000F05D00FB1641E00E05446CBF8004049
:10041000B9F1000F06D002F023FB02210160C81ED3
:10042000BDE8F09F48EA0640FAE73A2800D23038A3
:1004300020F02002412A01D3A2F13700884201D3E3
:100440004FF0FF307047000010B500F091FC0446FB
:100450000B480068844208D121460AA002F0AEFA97
:10046000052011490870002010BD2246044801688B
:100470000EA002F0A3FA1AA002F0A0FA0120F3E7FE
:10048000480000205B424C5D2052656365697665DB
:10049000204F4B2C20746F74616C206C656E3A2079
:1004A00025640D0A000000004C0000205B424C5DFA
:1004B0002052656365697665206C656E6774682097
:1004C0006D69736D617463682C2073656E643A2086
:1004D000256420726563763A2025640D0A000000C9
:1004E0005B424C5D20506C6561736520726573657D
:1004F0006E64202773746172743A6C656E270D0AFE
:100500000000000030B587B000F078FD0D4800F025
:1005100083F904460C4800F07FF905460020069058
:1005200001900394281B401C04900220059006A90A
:1005300001A800F0BBFC08B100F05EFA00F00CFD71
:1005400007B030BD00800008FFFF070810B506A007
:1005500002F034FA0AA002F031FA13A002F02EFAE7
:1005600001201A49087010BD5B424C5D20426F6F3C
:10057000746C6F616465722073746172740D0A002B
:100580005B424C5D2057616974696E6720686F73C8
:100590007420636F6D6D616E643A20737461727460
:1005A0003A6C656E0D0A00005B424C5D2045786137
:1005B0006D706C6520636F6D6D616E643A2073744D
:1005C0006172743A36353533360D0A004C0000201E
:1005D00010B5002400F05CF90446204610BD000070
:1005E00010B5FFF78FFF00F0D9F903A002F0E6F98C
:1005F00003200B49087010BD5B424C5D20537461B1
:10060000727420726563656976696E6720666972C7
:100610006D776172652073747265616D0D0A0000FB
:100620004C00002010B500F0A9FB044605480078F6
:10063000012805D1042004490870002001490870F0
:1006400010BD00004D0000204C00002038B54021B6
:100650001948FFF7EDFD002018490880401E0B46A1
:10066000402215490090164801F07CFA1348008892
:1006700000281FDD13A11048FFF7E5FD0446002CFC
:1006800014D0A01DFFF7F1FD10490860084600686E
:1006900040B1084601680EA002F090F90220194905
:1006A000087006E018A002F089F902E021A002F02B
:1006B00085F900BF38BD0000A008002044000020DC
:1006C0005800002073746172743A000048000020E2
:1006D0005B424C5D20415050206C656E6774682011
:1006E00061636365707465643A2025642C207072C0
:1006F00065706172696E6720726563656976650D04
:100700000A0000004C0000205B424C5D20496E76E0
:10071000616C6964206C656E6774682C2072657307
:10072000656E64202773746172743A6C656E270D70
:100730000A0000005B424C5D20496E76616C696482
:1007400020636F6D6D616E6420666F726D61742CD5
:1007500020726573656E64202773746172743A6CDD
:10076000656E270D0A00000010B5154800780628B0
:1007700022D2DFE800F02103060C0F18FFF766FF16
:100780001BE000200F490870FFF72AFF15E0FFF774
:1007900049FF12E0FFF758FE20B10BA002F00EF95E
:1007A00002F04AF909E0FFF713FF20B110A002F0B0
:1007B00005F902F041F900E000BF00BF10BD0000E4
:1007C0004C0000204D0000205B424C5D20446174D1
:1007D0006120636865636B206661696C65642C20C9
:1007E00073797374656D2072657365740D0A00000A
:1007F0005B424C5D204A756D7020746F20415050F3
:10080000206661696C65642C2073797374656D2052
:1008100072657365740D0A0001461548814201D264
:10082000002070471348814201D20120F9E71248A5
:10083000814201D20220F4E71048814201D2032014
:10084000EFE70F48814201D20420EAE70D488142D8
:1008500001D20520E5E70C48814201D20620E0E7FD
:100860000A48814201D20720DBE70720D9E70000D0
:10087000004000080080000800C0000800000108D7
:100880000000020800000408000006080000080834
:100890002DE9F0412A48007801281CD100F0AEFB78
:1008A0002848007840F47F4727480068274A811885
:1008B0003A460023012000F059FB08B100F09CF8F3
:1008C00000F04AFB20480068401C1F4908600020D7
:1008D0001B49087000BF1D4804684568B4F1005FFB
:1008E00002D38000844205D919A002F067F80120E4
:1008F000BDE8F0811548854202D31948854204D9E4
:1009000018A002F05BF80120F2E71EA002F056F8F2
:1009100072B6252002F062F8062002F05FF800F0BF
:100920009DFA00BF84F3088800BF08481A49086090
:10093000BFF34F8FBFF36F8F2E46B0470020D7E72E
:100940004000002041000020380000200080000806
:10095000737461636B206572726F720D0A00000020
:10096000FFFF070872657365742068616E646C65CB
:10097000722061646472657373206572726F720DA8
:100980000A0000004A756D70696E6720746F2061FF
:1009900070700D0A0000000008ED00E008B500BF0F
:1009A000002000900E480068006800900C48006825
:1009B0004068009000BF00BF00BF002000900848C2
:1009C000006800680090064800684068009000BF1A
:1009D00000BF4FF400620349014801F057F908BD18
:1009E00058000020A000002000BFFEE7704710B5AF
:1009F000012000F025FB10BD72B600BFFEE700002D
:100A000010B5002201B909E0012901D10A0205E06F
:100A1000022901D10A0201E04FF440720E4B1B681B
:100A200023F440730C4C236023461B68134323605C
:100A300023461B6823F07803236023461B680224A7
:100A400044EAC0042343044C236023461B6843F458
:100A50008033236010BD0000103C02401C48006839
:100A600000F40070B0B11A48006820F40070184912
:100A7000086000BF0846006840F40060086008464F
:100A8000006820F40060086000BF0846006840F479
:100A9000007008600E48006800F48060B0B10C4837
:100AA000006820F480600A49086000BF08460068BA
:100AB00040F4805008600846006820F480500860C8
:100AC00000BF0846006840F480600860704700007E
:100AD000003C02400A4A126822F44072084B1A6035
:100AE0001A46126842F004021A601A4612684FF45D
:100AF000803343EA00231A43014B1A607047000019
:100B0000103C0240074A126822F44072054B1A60FA
:100B10001A4612681A601A46126842F001021A60F8
:100B200001707047103C024010B50A49096821F471
:100B30004071084C21602146096841F440712160F0
:100B40002146096841F0010121600260BFF36F8F07
:100B5000436010BD103C0240084A126822F4407203
:100B6000064B1A601A46126842F480721A601A46DE
:100B7000126842F001021A6001807047103C024086
:100B8000084A126822F44072064B1A601A4612682C
:100B900042F400721A601A46126842F001021A60AA
:100BA00001607047103C02402348006800F01000CC
:100BB00040B12248C06940F010002049C8611020AF
:100BC0001D4908601C48006800F0200040B11B4827
:100BD000C06940F008001949C86120201649086022
:100BE0001548006800F0400040B11448C06940F06A
:100BF00004001249C86140200F4908600E4800688F
:100C000000F0800040B10D48C06940F002000B497F
:100C1000C8618020084908600748006800F00200A9
:100C200040B10648C06940F020000449C861022074
:100C300001490860704700000C3C024000000020A1
:100C400070B50446002500201449C86100F000FB7F
:100C5000054609E0601C38B124B100F0F9FA401BE8
:100C6000A04201D9032070BD0D48006800F4803017
:100C70000028EFD10A48006800F0010010B10120FF
:100C8000074908600648006800F0F20018B1FFF755
:100C90008BFF0120E7E70020E5E7000000000020CF
:100CA0000C3C024070B5002415E00E48015D024680
:100CB000601C105C41EA00250B4800680B4A104498
:100CC00001192A460023012000F050F908B1FFF76E
:100CD00093FEA01C84B2601C054909888842E4DBAD
:100CE00070BD0000A0000020380000200080000837
:100CF0003000002070B500242BE09CB91748005D3F
:100D00001749097841EA002516480068164A104438
:100D100001192A460023012000F028F908B1FFF745
:100D20006BFE14E0601E0D49085C095D40EA012578
:100D30000C4800680C4A104401192A46002301207F
:100D400000F014F908B1FFF757FE00BF00BFA01C68
:100D500084B2064800888442CFDB70BDA00000202A
:100D600041000020380000200080000830000020F2
:100D70000148006870470000340000200148006806
:100D8000704700003C00002070B50446A56D00F0DF
:100D90005FFA064694F83500022808D08020606586
:100DA00000BF002084F8340000BF012070BD20681F
:100DB000006820F01600216808602068406920F073
:100DC000800021684861206C08B9A06C28B12068B7
:100DD000006820F00800216808602068006820F0A2
:100DE00001002168086010E000F032FA801B05283D
:100DF0000BD920206065032084F8350000BF002057
:100E000084F8340000BF0320D0E72068006800F0B9
:100E100001000028E8D194F85C103F208840A860C9
:100E2000012084F8350000BF002084F8340000BFA2
:100E300000BFBBE7014691F83500022803D08020AF
:100E4000486501207047052081F835000868006872
:100E500020F001000A6810600020F3E710B50F4889
:100E60000F490860002008600E48091D0860002036
:100E700008600D480A491039086000200860C12048
:100E8000091D0860002008600120091D086000207D
:100E9000086000F033FA002010BD0000FFC9FEF624
:100EA0002038024033797704FF1160222DE9F041A8
:100EB00004460F46002600BF2548007E012802D1C7
:100EC0000220BDE8F08101202149087600BF4CF2E4
:100ED0005030FFF7B5FE0546002D31D1401E386079
:100EE000206801280FD1207C6168FFF7F3FD4CF2E8
:100EF0005030FFF7A5FE05461648006820F00400B4
:100F0000144908601AE0A66812E0217C3046FFF719
:100F100077FD4CF25030FFF793FE05460D48006810
:100F200020F07A000B4908600DB13E6005E0761CA8
:100F3000D4E902100844B042E7D800BFFFF78EFDA5
:100F400000BF00200249087600BF2846B9E700002C
:100F500000000020103C02400348006840F00040C0
:100F60000149086000207047103C02402DE9F04123
:100F70000646884614461D4600BF1E48007E0128CE
:100F800002D10220BDE8F08101201A49087600BF95
:100F90004CF25030FFF754FE07461FBB26B9E1B2B2
:100FA0004046FFF7AFFD12E0012E04D1A1B240464A
:100FB000FFF7D2FD0BE0022E04D121464046FFF799
:100FC000DFFD04E022462B464046FFF7ADFD4CF224
:100FD0005030FFF735FE07460748006820F0010053
:100FE0000549086000BF00200249087600BF384666
:100FF000C8E7000000000020103C02400020094922
:10100000096801F0004159B10749064A0C3A1160DC
:10101000064911600349096801F0004101B101204E
:1010200070470000103C024023016745AB89EFCDBB
:10103000012802D10121014A117070474D000020A2
:1010400010B5044604480068204020B102480460FE
:101050002046FFF7EDFF10BD143C0140F8B50246F5
:101060000B460025002400200021D6E0012606FAC8
:1010700001F51E6806EA0504AC4274D11E7906F03B
:101080000306012E04D01E7906F00306022E13D1AA
:1010900090684F000326BE40B0434F00DE68BE405C
:1010A00030439060506801268E40B0431E79C6F3ED
:1010B00000168E40304350601E7906F00306032E62
:1010C00009D0D0684F000326BE40B0434F009E6851
:1010D000BE403043D0601E7906F00306022E13D1C5
:1010E000CF0802F1200656F827004E07F70E0F260C
:1010F000BE40B0434F07FF0E1E69BE403043CF08CD
:1011000002F1200646F8270010684F000326BE4073
:10111000B0431E7906F003064F00BE403043106016
:101120005E6806F44036002E76D000BF002600969A
:101130003C4E366846F480463A4F3E603E4636683E
:1011400006F48046009600BF00BF374E8F0856F861
:1011500027008E07370F0F26BE40B043334EB242F2
:1011600002D1002624E057E0314EB24201D10126DF
:101170001EE0304EB24201D1022619E02E4EB2429C
:1011800001D1032614E02D4EB24201D104260FE016
:101190002B4EB24201D105260AE02A4EB24201D1BD
:1011A000062605E0284EB24201D1072600E00826B7
:1011B0008F073F0FBE4030431B4E8F0846F8270075
:1011C000224E3068A0435E6806F4801606B12043C4
:1011D0001E4E3060361D3068A0435E6806F400166F
:1011E00006B12043194E361D3060184E361F306848
:1011F000A0435E6806F4003606B12043134E361F46
:101200003060361F3068A0435E6806F4803606B151
:1012100020430E4E083E3060491C1029FFF426AFD3
:10122000F8BD000044380240083801400000024088
:101230000004024000080240000C0240001002407E
:101240000014024000180240001C0240083C01400B
:101250000148006870470000200000200348006833
:1012600003490978084401490860704720000020BC
:101270002800002010B50D48006840F400700B49AC
:1012800008600846006840F480600860084600680E
:1012900040F480700860032000F0A8F80F2000F0F0
:1012A00007F800F02DF8002010BD0000003C0240BF
:1012B00070B504460E4800784FF47A71B1FBF0F037
:1012C0000C490968B1FBF0F5284600F031FC08B183
:1012D000012070BD102C07D200222146501E00F0C4
:1012E00047F80548046001E00120F2E70020F0E73C
:1012F000280000202C00002024000020704700005F
:1013000008B500BF002000900E48006840F48040FF
:101310000C4908600846006800F48040009000BF57
:1013200000BF00BF00200090081F006840F0805000
:10133000091F08600846006800F08050009000BF58
:1013400000BF08BD443802400146084600280DDBB6
:1013500000BF00BF00F01F0301229A4043099B0019
:1013600003F1E023C3F8002100BF00BF00BF7047B6
:101370002DE9F05F80460D461646002701F040FB40
:10138000074639462A46334601F00700C0F1070AEE
:10139000BAF1040F02D94FF0040A01E0C0F1070AC4
:1013A000D14600F1040ABAF1070F02D24FF0000A49
:1013B00001E0A0F1030AD4464FF0010A0AFA09FA43
:1013C000AAF1010A0AEA020A0AFA0CFA4FF0010B22
:1013D0000BFA0CFBABF1010B0BEA030B4AEA0B0413
:1013E0002146404601F014FBBDE8F09F00BF00F02D
:1013F0000702064B19684FF6FF031940044B0B43D5
:1014000043EA0221014B196000BF70470CED00E078
:101410000000FA0570B504460D460CB9012070BDF8
:101420005848006800F00700A84209D255490D70DD
:101430000846006800F00700A84201D00120EEE74E
:10144000207800F0020002281DD1207800F004006E
:10145000042805D14C48006840F4E0504A4908602F
:10146000207800F00800082805D14748006840F4BB
:101470006040454908604448006820F0F000A168D9
:10148000084341490860207800F00100A8B3606873
:10149000012807D13C4808380068C0F34040B8B97B
:1014A0000120BCE76068022802D06068032807D1E9
:1014B000354808380068C0F3406048B90120AEE7FD
:1014C000314808380068C0F3400008B90120A6E799
:1014D0002D48006820F00300616808432A4908602D
:1014E000FFF7B6FE064609E0FFF7B2FE801B41F2A9
:1014F0008831884202D9032091E707E0224800683A
:1015000000F00C006168B0EB810FEDD11D48006860
:1015100000F00700A84209D91A490D700846006872
:1015200000F00700A84201D0012078E7207800F001
:101530000400042807D11448006820F4E050E16852
:10154000084311490860207800F00800082808D1F5
:101550000D48006820F46040216940EAC1000A4952
:10156000086000F03FF808490968C1F30311074A11
:10157000515CC8400649086006480068FFF798FEBD
:1015800000204CE7003C024008380240142C0008C0
:101590002C00002024000020014800687047000053
:1015A0002C00002000B5FFF7F7FF04490968C1F3DC
:1015B0008221034A515CC84000BD00000838024047
:1015C000242C000800B5FFF7E7FF04490968C1F3C0
:1015D0004231034A515CC84000BD00000838024057
:1015E000242C00082DE9F047002400250026A14600
:1015F0002548006800F00C0020B1042805D0082818
:101600003AD105E0DFF8849039E0DFF8849036E0E5
:101610001D48001F006800F03F041B48001F0068C1
:1016200000F4800078B11A481749091F0968C1F30E
:101630008811A0FB01700146224600233846FEF7C0
:10164000BFFD05460EE011480F49091F0968C1F3A7
:101650008811A0FB01700146224600233846FEF7A0
:10166000AFFD05460848001F0068C0F30140401C5C
:101670004600B5FBF6F902E0DFF8109000BF00BFAE
:101680004846BDE8F0870000083802400024F40016
:1016900040787D01F8B504460CB90120F8BD2078EA
:1016A00000F00100002874D0F948006800F00C0038
:1016B00004280DD0F648006800F00C00082813D16B
:1016C000F348001F006800F48000B0F5800F0BD1D4
:1016D000EF4808380068C0F34040002859D06068DF
:1016E000002856D10120D9E700BF6068B0F5803FDF
:1016F00008D1E7480838006840F48030E4490839E8
:1017000008601EE06068B0F5A02F0DD1E0480838F1
:10171000006840F48020DE49083908600846006807
:1017200040F4803008600CE0D9480838006820F4A4
:101730008030D749083908600846006820F48020C6
:10174000086000BF606890B1FFF782FD054606E0C3
:10175000FFF77EFD401B642801D903209EE7CC489B
:1017600008380068C0F340400028F1D011E0FFF7CE
:101770006FFD054606E0FFF76BFD401B642801D9AD
:1017800003208BE7C24808380068C0F340400028B7
:10179000F1D1207800F0020002285FD1BC48006837
:1017A00000F00C0058B1BA48006800F00C0008289E
:1017B0001CD1B748001F006800F48000B0B9B448DD
:1017C00008380068C0F3400020B1E068012801D06B
:1017D000012063E7AE480838006820F0F80021696E
:1017E00040EAC100AA490839086037E0E06800B360
:1017F0000120A8490860FFF72BFD054606E0FFF72A
:1018000027FD401B022801D9032047E7A0480838DC
:101810000068C0F340000028F1D09D4808380068F7
:1018200020F0F800216940EAC100994908390860B0
:1018300014E0002097490860FFF70AFD054606E01E
:10184000FFF706FD401B022801D9032026E7904838
:1018500008380068C0F340000028F1D1207800F07B
:10186000080008282CD16069A8B101208A490860C5
:10187000FFF7EEFC054606E0FFF7EAFC401B0228F6
:1018800001D903200AE782486C300068C0F34000A9
:101890000028F1D014E000207F490860FFF7D8FC51
:1018A000054606E0FFF7D4FC401B022801D90320BF
:1018B000F4E677486C300068C0F340000028F1D1AE
:1018C000207800F00400042870D1002770483830D8
:1018D000006800F0805090B900BF002000906C4874
:1018E0003830006840F08050694938310860084657
:1018F000006800F08050009000BF00BF01276748DB
:10190000006800F48070B0B96448006840F48070EA
:1019100062490860FFF79CFC054606E0FFF798FC6B
:10192000401B022801D90320B8E65C48006800F497
:1019300080700028F2D000BFA068012808D1544868
:101940006830006840F001005149683108601DE0CE
:10195000A06805280DD14E486830006840F00400AA
:101960004B49683108600846006840F00100086093
:101970000CE047486830006820F0010044496831B5
:1019800008600846006820F00400086000BFA068F6
:10199000A8B1FFF75DFC054609E0FFF759FC401BC5
:1019A00041F28831884202D9032077E626E03848A0
:1019B00068300068C0F340000028EED013E0FFF765
:1019C00047FC054608E0FFF743FC401B41F2883125
:1019D000884201D9032061E62D4868300068C0F3D1
:1019E00040000028EFD1012F07D129483830006886
:1019F00020F0805026493831086000BFA0690028D7
:101A000045D02348006800F00C0008285DD0A0698C
:101A1000022845D100201F490866FFF719FC05463A
:101A200006E0FFF715FC401B022801D9032035E62C
:101A3000174808380068C0F340600028F1D1D4E9A5
:101A400007010843616A40EA81110122A06AC2EBE2
:101A5000500041EA00412C20005D41EA00600C4941
:101A6000091F086001200B490866FFF7F1FB0546D6
:101A700006E0FFF7EDFB401B022801D903200DE62D
:101A8000034808380068C0F340600028F1D049E0FE
:101A90000838024000004742800E47420070004074
:101AA000002021490866FFF7D3FB054606E0FFF753
:101AB000CFFB401B022801D90320EFE51B4800683B
:101AC000C0F340600028F2D12CE0A069012800D1C9
:101AD000E4E51648001D0668A069012820D006F438
:101AE0008001E06981421BD106F03F01206A8142FA
:101AF00016D147F6C0703040616AB0EB811F0FD13C
:101B000006F440310122A06AC2EB5000B1EB004F55
:101B100006D106F070612C20005DB1EB006F01D0A2
:101B20000120BBE50020B9E5000047420038024033
:101B300070B504462546681EB0F1807F01D30120B0
:101B40000FE0681E4FF0E02148610F214FF0FF3099
:101B500000F05EFF00204FF0E0218861072008615F
:101B6000002070BD2DE9F84F04460F4690461D46F3
:101B7000DDF828A094F84200202878D117B1B8F1F8
:101B8000000F02D10120BDE8F88F00206064222000
:101B900084F842000120206300206063FFF758FBB7
:101BA0008346A4F82C80A4F82E80A068B0F5805F4E
:101BB00004D1206910B90026B94602E03E464FF034
:101BC00000090020288053E02068006800F0100021
:101BD000102813D100BF00200090206800680090FA
:101BE00020684068009000BF00BF288830B1022004
:101BF0006063202084F842000020C4E72068006869
:101C000000F02000202821D146B920684068C0F3A8
:101C10000800A9F8000009F1020911E0A068B0F578
:101C2000805F03D0A06828B9206918B9206840688F
:101C3000307004E02068406800F07F003070761C4F
:101C40002888401C2880E08D401EE0850AF10100B4
:101C500070B1FFF7FDFAA0EB0B00504502D8BAF1C6
:101C6000000F05D1202084F8420003208BE70BE011
:101C7000E08D0028A8D1A08DE18D401A2880202079
:101C800084F8420000207EE702207CE7F8B5044695
:101C90000E46174694F8420020282ED106B10FB9FF
:101CA0000120F8BD01202063002060633A463146E0
:101CB000204600F0E3FD0546EDB9206B012819D15F
:101CC00000BF0020009020680068009020684068F5
:101CD000009000BF00BF00BF00BF21680C3151E879
:101CE000001F41F0100021680C3141E80002002A79
:101CF000F3D100E001252846D3E70220D1E7000018
:101D000070B505460C463C492868884272D12CB90A
:101D1000C2143A493A48FFF7B9FF70BDFFF798FA85
:101D200038490860384804803848006836490988CE
:101D3000084436490860FFF761F933490988344A95
:101D40001278881800EBD0714910A0EB4101D9B985
:101D50002F48007801280AD1FEF7CCFF2D480168F2
:101D600029480088401C08442A49086008E0FEF71A
:101D700099FF2848006824490988084425490860D3
:101D800000202349087028E021480078012810D15C
:101D9000FEF7B0FF1C480088401E1849085C1E4929
:101DA00008701C48006818490988084419490860E7
:101DB00010E0FEF777FF14480088401E0F49085CCA
:101DC0001549087010480088401E124909680844E7
:101DD0001049086001200E490870FFF7BDF84FF464
:101DE00000610648FEF724FA4FF4006203490448F4
:101DF000FFF74CFF00BF90E700100140A00000205B
:101E0000580000203C00002030000020340000205A
:101E100040000020380000204100002070470000F2
:101E20002DE9F84F0446206805682068C6682068D8
:101E300047694FF00009CA4605F00F09B9F1000FD4
:101E40000AD105F0200038B106F0200020B120466C
:101E500000F07FFBBDE8F88FB9F1000F7CD007F0F0
:101E6000010018B906F49070002875D005F0010043
:101E700030B106F4807018B1606C40F0010060640D
:101E800005F0040030B107F0010018B1606C40F0BB
:101E90000200606405F0020030B107F0010018B1E3
:101EA000606C40F00400606405F0080048B106F082
:101EB000200010B907F0010018B1606C40F0080074
:101EC0006064606C002846D005F0200028B106F060
:101ED000200010B1204600F03CFB20684069C0F3B0
:101EE000801A606C00F0080010B9BAF1000F2DD014
:101EF000204600F0E8FA2068406900F040004028E1
:101F000020D100BF00BF2168143151E8001F21F02B
:101F100040002168143141E80002002AF3D100BFDB
:101F2000E06B50B17F48E16B0865E06BFEF782FF24
:101F300088B1E06B016D88470DE02046FFF76EFF2A
:101F400009E009E02046FFF769FF04E02046FFF7BB
:101F500065FF002060647DE7206B012878D105F0E3
:101F60001000002874D006F010000028FAD000BF3E
:101F70000020009020680068009020684068009071
:101F800000BF00BF2068406900F04000402870D1C9
:101F9000E06B006840681FFA80F8B8F1000F58D075
:101FA000A08D404555DDA4F82E80E06BC069B0F5EA
:101FB000807F43D000BF00BF21680C3151E8001F73
:101FC00021F4807021680C3141E80002002AF3D12D
:101FD00000BF00BF00BF2168143151E8001F21F08D
:101FE00001002168143141E80002002AF3D100BF4A
:101FF00000BF00BF2168143151E8001F21F04000EC
:102000002168143141E80002002AF3D100BF2020EA
:1020100084F842000020206300BF00BF21680C311B
:1020200051E8001F21F0100021680C3141E8000246
:10203000002AF3D100BFE06BFEF7A6FE022060632A
:10204000A08DE28D801A81B22046FFF759FE0EE086
:1020500052E0A08D40450AD1E06BC069B0F5807FA9
:1020600005D102206063A18D2046FFF749FEF1E60D
:10207000FFE7A08DE18D401A1FFA80F8E08DD0B304
:10208000B8F1000F37D000BF00BF21680C3151E814
:10209000001F21F4907021680C3141E80002002AF1
:1020A000F3D100BF00BF00BF2168143151E8001F09
:1020B00021F001002168143141E80002002AF3D127
:1020C00000BF202084F842000020206300BF00BF32
:1020D00021680C3151E8001F21F0100021680C31FB
:1020E00041E80002002AF3D100BF022060634146AC
:1020F0002046FFF705FEADE605F0800030B106F0A2
:10210000800018B1204600F0D9FBA3E605F040009E
:1021100030B106F0400018B1204600F00AFA99E606
:1021200000BF97E6B524000810B504460CB901209D
:1021300010BDA06900B100E000BF94F8410028B9CB
:10214000002084F84000204600F02AF8242084F87B
:1021500041002068C06820F400502168C860204613
:1021600000F076FA2068006920F490402168086148
:102170002068406920F02A00216848612068C06812
:1021800040F400502168C86000206064202084F87A
:10219000410084F842000020606300BFC8E70000EF
:1021A00010B586B00446142101A8FEF741F81F4976
:1021B0002068884238D100BF002000901C48006889
:1021C00040F010001A4908600846006800F010004E
:1021D000009000BF00BF00BF0020009014481438DA
:1021E000006840F001001249143908600846006890
:1021F00000F00100009000BF00BF4FF4C0600190EC
:1022000002200290002003900320049007200590F4
:1022100001A90848FEF722FF002205212520FFF72B
:10222000A7F82520FFF790F806B010BD0010014078
:10223000443802400000024070472DE9F84F044640
:102240000E46174699464FF0000A94F841002028A0
:1022500050D106B117B90120BDE8F88F00206064A5
:10226000212084F84100FEF7F3FF8246A784E7842B
:10227000A068B0F5805F04D1206910B90025B04690
:1022800002E035464FF000081EE053460022802150
:102290002046CDF8009000F041FB20B1202084F8CA
:1022A00041000320D8E745B9B8F80000C0F30800A2
:1022B0002168486008F1020803E028782168486036
:1022C0006D1CE08C401EE084E08C0028DDD153467C
:1022D000002240212046CDF8009000F01FFB20B1E5
:1022E000202084F841000320B6E7202084F8410034
:1022F0000020B1E70220AFE7704700BFFEE7000013
:1023000000B587B0142102A8FDF792FF00BF00209E
:1023100001902048006840F004001E49086008460B
:10232000006800F00400019000BF00BF00BF002063
:1023300001900846006840F0800008600846006888
:1023400000F08000019000BF00BF00BF002001909E
:102350000846006840F0010008600846006800F088
:102360000100019000BF00BF012002904FF48810CF
:1023700003900220049002A90748FEF76FFE002296
:1023800004210620FEF7F4FF0620FEF7DDFF07B06C
:1023900000BD0000303802400000024010B50B487C
:1023A0000B4908604FF416504860002108488160CE
:1023B000C16001610C21416100218161C161FFF7B0
:1023C000B3FE08B1FEF718FB10BD0000001001407D
:1023D0005800002000BFFEE700BFFEE770477047CF
:1023E00010B5FEF73BFF10BD00B593B0302107A834
:1023F000FDF71EFF142102A8FDF71AFF00BF002001
:1024000001902548006840F0805023490860084644
:10241000006800F08050019000BF00BF00BF0020A6
:1024200001901E48006840F480401C49086008463E
:10243000006800F48040019000BF00BF02200790B8
:1024400001200A9010200B9002200D9000210E9187
:1024500008210F91A82110910221119104211291BC
:1024600007A8FFF717F908B1FEF7C6FA0F20029088
:1024700002200390002004904FF4A05005904FF4E8
:1024800080500690052102A8FEF7C4FF08B1FEF7B0
:10249000B3FA13B000BD00004038024000700040A5
:1024A0000348006840F4700001490860704700006C
:1024B00088ED00E070B50446A56B0020E88528464D
:1024C000FFF7ACFC70BD00BF00BF02680C3252E8E1
:1024D000002F22F4907102680C3242E80013002BA6
:1024E000F3D100BF00BF00BF0268143252E8002FD2
:1024F00022F001010268143242E80013002BF3D1EC
:1025000000BF016B01290ED100BF00BF02680C3271
:1025100052E8002F22F0100102680C3242E800134A
:10252000002BF3D100BF202180F84210002101636D
:10253000704710B504462068C06820F0400021684C
:10254000C860202084F841002046FFF7D5FE002017
:1025500010BDF8B504460025002694F84200222854
:1025600073D1A068B0F5805F0BD1206948B9A66A25
:1025700020684068C0F308003080A06A801CA06218
:1025800014E0A56AA068B0F5805F03D0A06828B900
:10259000206918B920684068287004E02068406805
:1025A00000F07F002870A06A401CA062E08D401EF1
:1025B00080B2E085002846D12068C06820F0200065
:1025C0002168C8602068C06820F480702168C860F5
:1025D0002068406920F0010021684861202084F8CB
:1025E000420000206063206B012826D10020206378
:1025F00000BF00BF21680C3151E8001F21F010001E
:1026000021680C3141E80002002AF3D100BF2068A4
:10261000006800F0100010280AD100BF00200090D0
:1026200020680068009020684068009000BF00BFEC
:10263000A18D2046FFF764FB02E02046FFF7FCFD7A
:102640000020F8BD01E00020FBE70220F9E70000D0
:102650002DE9F84F04462068006920F44050E168F5
:102660000843216808612169A0680843616908433B
:10267000E169084300902068C06849F20C61884312
:10268000009908432168C8602068406920F44070C0
:10269000A16908432168486176492068884203D0CF
:1026A00075492068884203D1FEF78CFF814602E01D
:1026B000FEF778FF8146E069B0F5004F6CD102204B
:1026C0006168A0FB015003461920A9FB0070014678
:1026D0002A463846FDF774FD6421B0FBF1F04FEA5D
:1026E000001A02206168A0FB01510B461920A9FBCA
:1026F00000712A463846FDF763FD83460220616873
:10270000A0FB015003461920A9FB00712A46384658
:10271000FDF756FD6421B0FBF1F000EBC00101EBC9
:102720000010ABEB8000322101EBC0006421B0FB54
:10273000F1F000F0F8000AEB400A02206168A0FB0B
:10274000015003461920A9FB007001462A4638466D
:10275000FDF736FD834602206168A0FB0150034669
:102760001920A9FB00712A463846FDF729FD64218E
:10277000B0FBF1F000EBC00101EB0010ABEB80000F
:10278000322101EBC0006421B0FBF1F000F0070042
:102790005044216888606AE004206168A0FB015011
:1027A00003461920A9FB007001462A463846FDF76A
:1027B00007FD824604206168A0FB015003461920F2
:1027C000A9FB007001462A463846FDF7F9FC642152
:1027D000B0FBF1F000EBC00101EB0010AAEB8000B0
:1027E000322101EB00106421B0FBF1F000F0F00A9F
:1027F00004206168A0FB017003461920A9FB005169
:102800003A462846FDF7DCFC6421B0FBF1F00AEB08
:10281000001A04206168A0FB01510B461920A9FB96
:1028200000712A463846FDF7CBFC834604206168D8
:10283000A0FB015003461920A9FB007001462A465F
:102840003846FDF7BDFC6421B0FBF1F000EBC001A0
:1028500001EB0010ABEB8000322101EB0010642192
:10286000B0FBF1F000F00F00504421688860BDE833
:10287000F88F0000001001400014014010B503461D
:1028800099629A85DA8500205864222083F84200F4
:10289000186928B11868C06840F480701C68E0604E
:1028A0001868406940F001001C6860611868C068E1
:1028B00040F020001C68E060002010BD014691F847
:1028C0004100212828D18868B0F5805F0BD10869C4
:1028D00048B90A6A1088C0F308000B685860086A93
:1028E000801C086205E00B6A581C086218780B68A7
:1028F0005860C88C401E80B2C88458B90868C06847
:1029000020F080000B68D8600868C06840F0400084
:102910000B68D860002070470220FCE72DE9F843DF
:1029200004460D4617469846089E31E0701C70B369
:10293000FEF78EFCA0EB0800B04200D816B90320C9
:10294000BDE8F8832068C06800F00400F8B1802D6D
:102950001ED0402D1CD020680068C0F3C000B0B16C
:1029600000BF002000902068006800902068406848
:10297000009000BF00BF2046FFF7A5FD082060645F
:1029800000BF002084F8400000BF0120D8E7FFE727
:10299000206800682840A84201D1012000E0002002
:1029A000B842C3D00020CBE710B50248FFF738FA91
:1029B00010BD00005800002000BFFEE70FB4054B1B
:1029C00010B503A9044A029800F05EF810BC5DF847
:1029D00014FB0000DD2B00085000002000280BDB5A
:1029E00000F01F0201219140044A430942F82310DC
:1029F000BFF34F8FBFF36F8F7047000080E100E09F
:102A000002480068C0F30220704700000CED00E0AF
:102A100010B5002804DB0A07130E054A135406E01C
:102A20000A07140E034A00F00F031B1FD45410BDF5
:102A300000E400E018ED00E0BFF34F8F06480068A7
:102A400000F4E06005490843001D03490860BFF336
:102A50004F8F00BF00BFFDE70CED00E00000FA055E
:102A6000004870475400002002E008C8121F08C147
:102A7000002AFAD170477047002001E001C1121FFF
:102A8000002AFBD1704700002DE9FF4F89B09B461B
:102A90000446002506E025280BD05A460B9990479E
:102AA000641C6D1C20780028F5D10DB02846BDE8C7
:102AB000F08F0027B8460122474900E0074314F889
:102AC000013F203B02FA03F00842F7D120782E287C
:102AD00019D114F8010F47F004072A280ED06FF01F
:102AE0002F022078A0F1300109290CD808EB8801C9
:102AF00002EB410100EB0108641CF2E70A98641C38
:102B000050F8048B0A9020780028CED0642808D092
:102B1000692806D075281ED05A460B9990476D1C1F
:102B200058E00A994FF00A0901C90A91002802DA0F
:102B300040422D2102E0390504D52B218DF82010CB
:102B4000012103E0F90704D02021F7E78A4608AE07
:102B50000DE00021FAE70A994FF00A0901C90A912C
:102B6000F7E74946FDF78EFB303106F8011D0028D6
:102B7000F7D1ADEB060000F12009780701D44FF042
:102B80000108C84502DDA8EB090000E000208046EE
:102B9000002706E008A85A46C05D0B9990476D1CB7
:102BA0007F1C5745F6DB04E030205A460B999047CE
:102BB0006D1CB8F10001A8F10108F5DC05E016F87C
:102BC000010B5A460B9990476D1CB9F10001A9F110
:102BD0000109F4DC641C65E70928010013B50C4603
:102BE0004FF0FF33012269460248FFF726FB0098A9
:102BF0001CBD000058000020FEF73CFBFFF7F4FB73
:102C0000FFF77EFBFFF7CAFBFDF7A0FC01E0FDF735
:102C1000ABFDFCE70000000000000000010203041F
:102C200006070809000000000102030400404040BC
:102C3000404040404040414141414140404040408F
:102C4000404040404040404040404040400502023B
:102C500002020202020202020202020202202020FA
:102C60002020202020202002020202020202909056
:102C70009090909010101010101010101010101054
:102C800010101010101010100202020202028888A8
:102C900088888888080808080808080808080808B4
:102CA000080808080808080802020202400000009C
:102CB0002D2C0008D42C0008000000205800000033
:102CC000682A00082C2D000858000020880C0000FD
:102CD000782A00080000000000000000000000004A
:102CE00000000000010000000000000000000000E3
:102CF00000000000000000001000000001000000C3
:102D00000024F400000000000000000000000000AB
:102D100000000000000000000000000000000000B3
:0C2D2000000000000000000000000000A7
:040000050800018965
:00000001FF
